:100000002C050020A9260000152700001D27000050
:1000100025270000252700002527000000000000FC
:100020000000000000000000000000002527000084
:1000300025270000000000002527000025270000DC
:100040002527000025270000252700002527000080
:100050002527000025270000252700002527000070
:100060002527000025270000252700002527000060
:100070002527000025270000252700002527000050
:100080002527000025270000252700002527000040
:100090002527000025270000252700002527000030
:1000A0002527000025270000252700002527000020
:1000B0002527000025270000252700002527000010
:1000C0002527000025270000252700002527000000
:1000D00025270000252700002527000025270000F0
:1000E0002527000000000000000000002527000078
:1000F00025270000252700002527000025270000D0
:1001000025270000252700002527000025270000BF
:100110000000000000000000252700002527000047
:10012000252700002527000025270000252700009F
:10013000252700002527000025270000252700008F
:1001400000000000000000000000000000000000AF
:10015000252700002527000025270000252700006F
:10016000000000000000000000000000000000008F
:10017000000000000000000000000000000000007F
:10018000000000000000000000000000000000006F
:10019000000000000000000000000000000000005F
:1001A000000000000000000000000000000000004F
:1001B000252700002527000025270000252700000F
:1001C00025270000252700002527000025270000FF
:1001D00025270000252700002527000025270000EF
:1001E000252700002527000025270000000000002B
:1001F000000000002527000025270000252700001B
:100200002527000025270000000000000000000056
:1002100025270000252700002527000025270000AE
:10022000252700002527000025270000252700009E
:10023000252700002527000025270000252700008E
:10024000252700002527000025270000252700007E
:10025000252700002527000025270000252700006E
:1002600025270000252700002527000080B483B043
:1002700000AF2F4A2E4B1B6843F0010313602C4B39
:100280001B687B602B4A2B4B1B6823F0E003136039
:10029000294A294B1B68C3F313031360274A274BD2
:1002A0001B6843F0E0031360254A254B1B6823F0CD
:1002B000E0031360234A234B1B6843F0E003136001
:1002C000214A214B1B6843F0E0031360184A184B86
:1002D0001B6843F002031360154B1B687B601B4ACD
:1002E0001A4B1B6823F0FF031360194B1B68184B54
:1002F00000221A60174A174B1B6843F0FF03136074
:10030000154A154B1B6823F0FF031360134A134B68
:100310001B6843F0FF031360114A114B1B6843F045
:10032000FF03136000BF0C37BD465DF8047B7047C8
:1003300008E10F40284500402C45004000440040A3
:10034000204400401C45004008450040285500401E
:100350002C55004000540040205400401C550040E3
:100360000855004080B582B000AF0346FB71124AC9
:10037000114B1B6823F0E0031360104AFB791360F4
:100380000D4A0D4B1B6843F0800313600A4A0A4B69
:100390001B6823F060031360132000F0D9F8064AAD
:1003A000054B1B6823F0E0031360012000F004F903
:1003B00000BF0837BD4680BDFC430040FC530040F1
:1003C00080B582B000AF0346FB710F4AFB79136022
:1003D0000E4A0E4B1B6843F0C00313600B4A0B4BD5
:1003E0001B6823F020031360132000F0B1F8074AC4
:1003F000064B1B6823F0E0031360012000F0DCF8DB
:1004000000BF0837BD4680BDFC530040FC430040A0
:1004100080B500AFFFF72AFF0F2000F0CDF838209D
:10042000FFF7A0FF052000F0C7F83820FFF79AFF7C
:10043000962000F0ABF80C20FFF794FF0120FFF7A7
:1004400091FF0620FFF78EFF322000F0B5F800BFC5
:1004500080BD00BF80B582B000AF786006E07B68E9
:100460005A1C7A601B781846FFF7AAFF7B681B7836
:10047000002BF4D100BF0837BD4680BD80B582B0E7
:1004800000AF03463960FB713B68DAB2FB79134475
:10049000DBB21846FFF766FF00BF0837BD4680BDD8
:1004A00080B400AF1F4A1F4B1B6843F0004313602A
:1004B0001C4A1C4B1B6843F4006313601A4A1A4B16
:1004C0001B6823F4F86303F5A8631360154A154B02
:1004D0001B6823F070031360124A124B1B6823F44D
:1004E000005313600F4A0F4B1B6843F080431360A7
:1004F0000C4A0C4B1B6823F0FE5303F1807313600E
:1005000000BF0A4B1B6803F04003002BF9D0054ADB
:10051000044B1B6823F40063136000BFBD465DF805
:10052000047B704770E00F4060E00F4050E00F40E8
:1005300080B400AF054B00221A60044B05221A60FC
:1005400000BFBD465DF8047B704700BF10E000E0CF
:1005500080B483B000AF7860094A7B68013B1360C8
:10056000084B00221A6000BF074B1B6803F480335E
:10057000002BF9D000BF0C37BD465DF8047B7047F7
:1005800014E000E018E000E010E000E080B584B086
:1005900000AF78600023FB6005E05020FFF7D8FF34
:1005A000FB680133FB60FA687B689A42F5D300BFB1
:1005B0001037BD4680BD00BF80B584B000AF786005
:1005C0000023FB6005E00748FFF7C2FFFB6801332B
:1005D000FB60FA687B689A42F5D300BF1037BD46CE
:1005E00080BD00BF8038010080B584B000AF01211C
:1005F000504802F021FBF860F9684E4802F021FBF8
:100600004C4802F0F9FA0346FB7297F90B30432B82
:100610000AD1494B1B68494A1360474B00221A60B4
:10062000474B64221A6080E097F90B304B2B0AD1BC
:10063000414B1B68434A13603F4B00221A60404BFA
:1006400064221A6071E097F90B30422B0AD13A4BC1
:100650001B683D4A1360384B00221A60384B6422F5
:100660001A6062E097F90B30532B0AD1324B1B68AA
:10067000364A1360304B00221A60314B64221A60F4
:1006800053E097F90B30632B0AD12B4B1B68304A90
:100690001360294B00221A60294B64221A6044E03F
:1006A00097F90B30592B0AD1234B1B68294A136049
:1006B000214B00221A60224B64221A6035E097F920
:1006C0000B30452B0AD11C4B1B68234A13601A4B75
:1006D00000221A601A4B64221A6026E097F90B3048
:1006E000542B0AD1144B1B681C4A1360124B002276
:1006F0001A60134B64221A6017E097F90B30303BF5
:100700007B600F4B1B687A6802FB03F20A4B1B6885
:100710001344094A13600A4B1B68114A82FB0312F7
:100720009210DB17D31A064A136000BF1037BD467C
:1007300080BD00BF00C00040140400201804002049
:10074000100400201C0400202004002024040020A9
:1007500028040020400500202C0500203C05002036
:100760006766666680B500AF1C4802F053F91C4806
:1007700002F03AF91B4802F037F9012002F094F830
:1007800040F2014002F090F803214FF0402002F0C7
:100790007CF8152002F0F8F8134802F0F6F905216C
:1007A000114802F050FA60234FF4E1320F490E482D
:1007B00002F0F9F90C4802F01AFA50210A4802F046
:1007C00037FA0B49084802F026FA074802F0D2F936
:1007D000152002F0A9F800BF80BD00BF400540020F
:1007E000001800F0000800F000C000400024F400F1
:1007F000E905000080B483B000AF0F4A0E4B1B68C0
:1008000043F0040313600C4B1B687B600B4B0C4ADA
:100810001A600C4B00221A600B4B00221A600B4B23
:10082000F0221A600A4BF0221A6000BF0C37BD4656
:100830005DF8047B704700BF08E60F40206500406C
:1008400000600040246500400064004010650040E6
:100850001C65004080B483B000AF104A0F4B1B688A
:1008600043F0080313600D4B1B687B600C4A0C4B74
:100870001B6843F00F0313600A4A0A4B1B6823F0FE
:100880000F031360084A084B1B6843F00F03136003
:1008900000BF0C37BD465DF8047B704708E10F4090
:1008A00000740040207400401C75004080B483B088
:1008B00000AF0F4A0E4B1B6843F0080313600C4B4C
:1008C0001B687B600B4B0C4A1A600C4B01221A60B0
:1008D0000B4B0E221A600B4B11221A600A4B1F227F
:1008E0001A6000BF0C37BD465DF8047B704700BF3F
:1008F00008E60F40207500404B434F4C24750040E4
:1009000000740040107500401C75004080B500AFB9
:1009100000218020FFF7B2FD0A48FFF79BFD002170
:10092000C020FFF7ABFD0848FFF794FD074B0122FD
:100930001A600021C020FFF7A1FD0548FFF78AFDDE
:1009400000BF80BD98360000AC3600004405002092
:10095000C036000080B500AF00218020FFF78EFD7B
:100960000748FFF777FD0021C020FFF787FD054806
:10097000FFF770FD044B01221A6000BF80BD00BF6D
:10098000D4360000AC3600004405002080B586B0A7
:1009900000AFF860B9607A600021C020FFF76EFDFB
:1009A0002A48FFF757FD00218020FFF767FD274801
:1009B000FFF750FD00218020FFF760FD2448FFF77E
:1009C00049FD07F114030A221946F86802F020FED7
:1009D00007218020FFF752FD07F114031846FFF7A7
:1009E00039FD0021C020FFF749FD1A48FFF732FD0D
:1009F00007F114030A221946B86802F009FE07211C
:100A0000C020FFF73BFD07F114031846FFF722FD56
:100A10000921C020FFF732FD0F48FFF71BFD07F14A
:100A200014030A221946786802F0F2FD0D21C02055
:100A3000FFF724FD07F114031846FFF70BFD074BE2
:100A400001221A6000BF1837BD4680BDAC360000D9
:100A5000E8360000F0360000F836000044050020BB
:100A600080B500AF00218020FFF708FD0748FFF7A1
:100A7000F1FC0021C020FFF701FD0548FFF7EAFC6B
:100A8000044B01221A6000BF80BD00BF0037000088
:100A9000AC3600004405002080B500AF0021802066
:100AA000FFF7ECFC0948FFF7D5FC0021C020FFF759
:100AB000E5FC0748FFF7CEFC0021C020FFF7DEFC75
:100AC0000448FFF7C7FC00BF80BD00BF143700001B
:100AD000AC3600002837000080B584B000AF7860E5
:100AE00000218020FFF7CAFC1248FFF7B3FC002169
:100AF000C020FFF7C3FC1048FFF7ACFC0021C0206A
:100B0000FFF7BCFC0D48FFF7A5FC07F10C030A2218
:100B10001946786802F07CFD0821C020FFF7AEFC82
:100B200007F10C031846FFF795FC00BF1037BD46D0
:100B300080BD00BF3C370000AC36000050370000DD
:100B400080B584B000AF786000218020FFF796FC6C
:100B50001248FFF77FFC0021C020FFF78FFC1048F0
:100B6000FFF778FC0021C020FFF788FC0D48FFF755
:100B700071FC07F10C030A221946786802F048FD5F
:100B80000821C020FFF77AFC07F10C031846FFF795
:100B900061FC00BF1037BD4680BD00BF5837000064
:100BA000683700007837000080B584B000AF786007
:100BB00000218020FFF762FC1248FFF74BFC002168
:100BC000C020FFF75BFC1048FFF744FC0021C02069
:100BD000FFF754FC0D48FFF73DFC07F10C030A2218
:100BE0001946786802F014FD0821C020FFF746FC82
:100BF00007F10C031846FFF72DFC00BF1037BD4668
:100C000080BD00BF80370000AC36000050370000C8
:100C100080B584B000AF786000218020FFF72EFC03
:100C20001248FFF717FC0021C020FFF727FC1048EF
:100C3000FFF710FC0021C020FFF720FC0D48FFF754
:100C400009FC07F10C030A221946786802F0E0FC5F
:100C50000821C020FFF712FC07F10C031846FFF72C
:100C6000F9FB00BF1037BD4680BD00BF94370000C0
:100C7000AC3600005037000080B584B000AF78601B
:100C800000218020FFF7FAFB1548FFF7E3FB002166
:100C9000C020FFF7F3FB1348FFF7DCFB0021C02067
:100CA000FFF7ECFB1048FFF7D5FB07F10C030A2216
:100CB0001946786802F0ACFC0821C020FFF7DEFB83
:100CC0000A48FFF7C7FB0821C020FFF7D7FB07F151
:100CD0000C031846FFF7BEFB00BF1037BD4680BDB2
:100CE000A8370000AC36000050370000BC370000C9
:100CF00080B485B000AF87ED010A38600023FB6047
:100D0000D7ED017AFDEEE77A17EE903AFB603A688C
:100D1000FB689A4201DBFB6801E04FF0FF331846A5
:100D20001437BD465DF8047B704700BF90B585B0B1
:100D300000AF87ED010A38600023FB60786802F09D
:100D4000E9F84FF000020B4B02F062FA03460C4642
:100D50001846214602F0CCFB0346FB603A68FB686C
:100D60009A4201DBFB6801E04FF0FF33184614376D
:100D7000BD4690BD0000E03F90B585B000AF87ED67
:100D8000010A38600023FB60786802F0C3F84FF076
:100D900000020B4B02F03CFA03460C461846214673
:100DA00002F0A6FB0346FB603A68FB689A4201DB4F
:100DB000FB6801E04FF0FF3318461437BD4690BD85
:100DC0000000D03F80B584B000AF786007F10C031D
:100DD0000A221946786802F01BFC00218020FFF7E8
:100DE0004DFB0848FFF736FB04218020FFF746FB48
:100DF00007F10C031846FFF72DFB00BF1037BD4667
:100E000080BD00BFF836000080B584B000AF7860C8
:100E100007F10C030A221946786802F0F9FB072152
:100E20008020FFF72BFB0848FFF714FB0E218020E2
:100E3000FFF724FB07F10C031846FFF70BFB00BF7D
:100E40001037BD4680BD00BFC837000080B584B0F4
:100E500000AF786007F10C030A221946786802F0A7
:100E6000D7FB0021C020FFF709FB0848FFF7F2FA83
:100E70000721C020FFF702FB07F10C031846FFF71C
:100E8000E9FA00BF1037BD4680BD00BFD037000073
:100E900080B487B000AF786087ED000A00233B6123
:100EA0000023FB60D7ED007AFDEEE77A17EE903A6B
:100EB0007B6111E097ED007AF2EE046AC7EE267AC4
:100EC000C7ED007AD7ED007AFDEEE77A17EE903A9B
:100ED0007B613B6901333B617B69002BEADC3B6949
:100EE0007A6813442E221A70D7ED007AB2EE047A93
:100EF00067EE877AC7ED007AD7ED007AFDEEE77AE4
:100F000017EE903A7B617B6907EE903AF8EEE77A4C
:100F100097ED007A77EE677AC7ED007A2CE0FA68F1
:100F20003B699A4202D1FB680133FB60FB687A6837
:100F300013447A69D2B23032D2B252B21A70D7EDBB
:100F4000007AB2EE047A67EE877AC7ED007AD7EDC1
:100F5000007AFDEEE77A17EE903A7B617B6907EE47
:100F6000903AF8EEE77A97ED007A77EE677AC7ED78
:100F7000007AFB680133FB607B69002BCFDC3A69A8
:100F8000FB689A42CBDCFB687A68134400221A7033
:100F900000BF1C37BD465DF8047B704780B500AFCD
:100FA0000021C020FFF76AFA0548FFF753FA002135
:100FB000C020FFF763FA0348FFF74CFA00BF80BD7B
:100FC000AC360000D8370000B0B586B000AFF8608E
:100FD000B9607A603B60F86801F08AFF4FF0000268
:100FE000234B01F0EBFF03460C4625461C46B86830
:100FF00001F07EFF4FF000021E4B01F0DFFF0246C2
:101000000B462046294601F027FE03460C4625469E
:101010001C46786801F06CFF02460B4620462946C4
:1010200001F01AFE03460C461846214602F088FAE3
:1010300003467B6197ED050A3868FFF729FF002119
:10104000C020FFF71BFA0C48FFF704FA0021C0206C
:10105000FFF714FA3868FFF7FDF90521C020FFF704
:101060000DFA0648FFF7F6F900BF1837BD46B0BDC8
:101070000000D03F0000E03FAC360000EC3700003D
:1010800080B500AF084A084B1B6843F008031360A3
:101090004FF47A70FFF790FA034A034B1B6823F072
:1010A0000803136000BF80BDFC73004080B584B0AE
:1010B00000AF786000218020FFF7E0F91D48FFF7BE
:1010C000C9F90021C020FFF7D9F91A48FFF7C2F982
:1010D00000218020FFF7D2F91748FFF7BBF907F18D
:1010E0000C030A221946786802F092FA0021C02007
:1010F000FFF7C4F91148FFF7ADF90A21C020FFF747
:10110000BDF907F10C031846FFF7A4F90C4A0C4B84
:101110001B6843F0040313604FF4FA70FFF74CFAB6
:10112000074A074B1B6823F00403136000BF103706
:10113000BD4680BDAC360000F8370000083800001E
:10114000FC73004080B500AF3C4B1B680A223C4951
:10115000184602F05DFA394B1B68632B21DD384BD2
:101160005922DA70374B00221A6015E000BF354B68
:101170001B68334AD35C5BB2DBB21946324801F0DC
:1011800042FD034683F00103DBB2002BEFD12D4B70
:101190001B6801332B4A13602A4B1B68032BE5DDC8
:1011A0004AE0264B1B68632B21DC254B59229A70A1
:1011B000244B00221A6015E000BF224B1B68204A16
:1011C000D35C5BB2DBB219461F4801F01CFD03463D
:1011D00083F00103DBB2002BEFD11A4B1B68013304
:1011E000184A1360174B1B68022BE5DD24E0134BF4
:1011F0001B68092B20DC124B59225A70114B00221C
:101200001A6015E000BF0F4B1B680D4AD35C5BB240
:10121000DBB219460C4801F0F6FC034683F00103EB
:10122000DBB2002BEFD1074B1B680133054A13607B
:10123000044B1B68012BE5DD00BF80BD400500208D
:10124000300500201404002000C0004080B500AF2D
:101250003F4B1B680A223F49184602F0D9F93C4B24
:101260001B68632B21DD3B4B4522DA703A4B002291
:101270001A6015E000BF384B1B68364AD35C5BB27E
:10128000DBB21946354801F0BEFC034683F001038A
:10129000DBB2002BEFD1304B1B6801332E4A1360B9
:1012A0002D4B1B68032BE5DD4FE0294B1B68632B9F
:1012B00025DC274B1B68092B21DD264B45229A7024
:1012C000254B00221A6015E000BF234B1B68214A02
:1012D000D35C5BB2DBB21946204801F094FC0346B4
:1012E00083F00103DBB2002BEFD11B4B1B680133F2
:1012F000194A1360184B1B68022BE5DD25E0144BDF
:101300001B68092B21DC134B45225A70124B00221B
:101310001A6015E000BF104B1B680E4AD35C5BB22D
:10132000DBB219460D4801F06EFC034683F0010361
:10133000DBB2002BEFD1084B1B680133064A136068
:10134000054B1B68012BE5DDFFE700BF80BD00BF3B
:101350002C050020300500201404002000C00040AF
:1013600080B500AF3F4B1B680A223F49184602F088
:101370004FF93C4B1B68632B21DD3B4B5422DA7049
:101380003A4B00221A6015E000BF384B1B68364A02
:10139000D35C5BB2DBB21946354801F034FC03463E
:1013A00083F00103DBB2002BEFD1304B1B6801331C
:1013B0002E4A13602D4B1B68032BE5DD4FE0294BB4
:1013C0001B68632B25DC274B1B68092B21DD264B73
:1013D00054229A70254B00221A6015E000BF234B5F
:1013E0001B68214AD35C5BB2DBB21946204801F08E
:1013F0000AFC034683F00103DBB2002BEFD11B4B49
:101400001B680133194A1360184B1B68022BE5DD7A
:1014100025E0144B1B68092B21DC134B54225A7016
:10142000124B00221A6015E000BF104B1B680E4AD9
:10143000D35C5BB2DBB219460D4801F0E4FB034616
:1014400083F00103DBB2002BEFD1084B1B680133A3
:10145000064A1360054B1B68012BE5DDFFE700BF63
:1014600080BD00BF3C050020300500201404002092
:1014700000C0004080B500AF3F4B1B680A223F49C7
:10148000184602F0C5F83C4B1B68632B21DD3B4B33
:101490005322DA703A4B00221A6015E000BF384B35
:1014A0001B68364AD35C5BB2DBB21946354801F0A3
:1014B000AAFB034683F00103DBB2002BEFD1304BD4
:1014C0001B6801332E4A13602D4B1B68032BE5DD8F
:1014D0004FE0294B1B68632B25DC274B1B68092B2E
:1014E00021DD264B53229A70254B00221A6015E00D
:1014F00000BF234B1B68214AD35C5BB2DBB21946A9
:10150000204801F080FB034683F00103DBB2002B8F
:10151000EFD11B4B1B680133194A1360184B1B6832
:10152000022BE5DD25E0144B1B68092B21DC134B56
:1015300053225A70124B00221A6015E000BF104B64
:101540001B680E4AD35C5BB2DBB219460D4801F052
:101550005AFB034683F00103DBB2002BEFD1084BAB
:101560001B680133064A1360054B1B68012BE5DD40
:10157000FFE700BF80BD00BF24040020300500202D
:101580001404002000C0004080B500AF3F4B1B6832
:101590000A223F49184602F03BF83C4B1B68632B7C
:1015A00021DD3B4B4322DA703A4B00221A6015E0F2
:1015B00000BF384B1B68364AD35C5BB2DBB21946BE
:1015C000354801F020FB034683F00103DBB2002B1A
:1015D000EFD1304B1B6801332E4A13602D4B1B6833
:1015E000032BE5DD4FE0294B1B68632B25DC274BE4
:1015F0001B68092B21DD264B43229A70254B0022C4
:101600001A6015E000BF234B1B68214AD35C5BB214
:10161000DBB21946204801F0F6FA034683F00103D5
:10162000DBB2002BEFD11B4B1B680133194A13604F
:10163000184B1B68022BE5DD25E0144B1B68092BBA
:1016400021DC134B43225A70124B00221A6015E022
:1016500000BF104B1B680E4AD35C5BB2DBB219466D
:101660000D4801F0D0FA034683F00103DBB2002BF2
:10167000EFD1084B1B680133064A1360054B1B680A
:10168000012BE5DDFFE700BF80BD00BF180400208F
:10169000300500201404002000C0004080B500AFD9
:1016A0003F4B1B680A223F49184601F0B1FF3C4BF3
:1016B0001B68632B21DD3B4B6322DA703A4B00221F
:1016C0001A6015E000BF384B1B68364AD35C5BB22A
:1016D000DBB21946354801F096FA034683F0010360
:1016E000DBB2002BEFD1304B1B6801332E4A136065
:1016F0002D4B1B68032BE5DD4FE0294B1B68632B4B
:1017000025DC274B1B68092B21DD264B63229A70B1
:10171000254B00221A6015E000BF234B1B68214AAD
:10172000D35C5BB2DBB21946204801F06CFA034689
:1017300083F00103DBB2002BEFD11B4B1B6801339D
:10174000194A1360184B1B68022BE5DD25E0144B8A
:101750001B68092B21DC134B63225A70124B0022A9
:101760001A6015E000BF104B1B680E4AD35C5BB2D9
:10177000DBB219460D4801F046FA034683F0010337
:10178000DBB2002BEFD1084B1B680133064A136014
:10179000054B1B68012BE5DDFFE700BF80BD00BFE7
:1017A00028040020300500201404002000C0004060
:1017B00080B500AF3F4B1B680A223F49184601F035
:1017C00027FF3C4B1B68632B21DD3B4B4222DA7029
:1017D0003A4B00221A6015E000BF384B1B68364AAE
:1017E000D35C5BB2DBB21946354801F00CFA034614
:1017F00083F00103DBB2002BEFD1304B1B680133C8
:101800002E4A13602D4B1B68032BE5DD4FE0294B5F
:101810001B68632B25DC274B1B68092B21DD264B1E
:1018200042229A70254B00221A6015E000BF234B1C
:101830001B68214AD35C5BB2DBB21946204801F039
:10184000E2F9034683F00103DBB2002BEFD11B4B1F
:101850001B680133194A1360184B1B68022BE5DD26
:1018600025E0144B1B68092B21DC134B42225A70D4
:10187000124B00221A6015E000BF104B1B680E4A85
:10188000D35C5BB2DBB219460D4801F0BCF90346EC
:1018900083F00103DBB2002BEFD1084B1B6801334F
:1018A000064A1360054B1B68012BE5DDFFE700BF0F
:1018B00080BD00BF2004002030050020140400205B
:1018C00000C0004080B500AF3F4B1B680A223F4973
:1018D000184601F09DFE3C4B1B68632B21DD3B4B02
:1018E0004B22DA703A4B00221A6015E000BF384BE9
:1018F0001B68364AD35C5BB2DBB21946354801F04F
:1019000082F9034683F00103DBB2002BEFD1304BA9
:101910001B6801332E4A13602D4B1B68032BE5DD3A
:101920004FE0294B1B68632B25DC274B1B68092BD9
:1019300021DD264B4B229A70254B00221A6015E0C0
:1019400000BF234B1B68214AD35C5BB2DBB2194654
:10195000204801F058F9034683F00103DBB2002B65
:10196000EFD11B4B1B680133194A1360184B1B68DE
:10197000022BE5DD25E0144B1B68092B21DC134B02
:101980004B225A70124B00221A6015E000BF104B18
:101990001B680E4AD35C5BB2DBB219460D4801F0FE
:1019A00032F9034683F00103DBB2002BEFD1084B81
:1019B0001B680133064A1360054B1B68012BE5DDEC
:1019C000FFE700BF80BD00BF1C04002030050020E1
:1019D0001404002000C0004080B500AF002180202A
:1019E000FEF74CFD0948FEF735FD0021C020FEF74B
:1019F00045FD0648FEF72EFD00218020FEF73EFD46
:101A00000348FEF727FD00BF80BD00BFAC360000D5
:101A10001438000080B582B000AF78600021C0208B
:101A2000FEF72CFD0C48FEF715FD0A220B497868DD
:101A300001F0EEFD0021C020FEF720FD0748FEF773
:101A400009FD0321C020FEF719FD0548FEF702FD40
:101A500000BF0837BD4680BDAC3600003005002011
:101A600024380000B0B59CB000AFFEF719FDFEF7BA
:101A70005FFDFEF7CDFC03218020FEF7FFFCB24B9B
:101A80001B681846FEF7E6FCFEF7E4FEFEF7B2FE22
:101A9000FEF70CFFFEF766FE00237B6300233B632B
:101AA0000023FB620023BB6200237B6200233B62B6
:101AB0000023FB610023BB6100237B6100233B61AA
:101AC0000023FB600023BB6000237B600023FB66D8
:101AD0000023BB664FF000037B664FF000033B66BC
:101AE0004FF00003FB65BB6D0133BB65974B1B6873
:101AF00003F080037B64954B1B6803F040033B6459
:101B0000924B1B6803F02003FB63904B1B6803F0B0
:101B10001003BB637B6C002B6DD1796B8C4B83FB0B
:101B200001235A10CB17D21A13469B001344CA1A2A
:101B3000002A02D1FEF70EFF58E0796B844B83FB3D
:101B400001235A10CB17D21A13469B001344CA1A0A
:101B5000012A02D1FEF784FF48E0796B7C4B83FBBE
:101B600001235A10CB17D21A13469B001344CA1AEA
:101B7000022A02D1FEF7CAFE38E0796B744B83FB70
:101B800001235A10CB17D21A13469B001344CA1ACA
:101B9000032A02D1FEF780FF28E0796B6C4B83FBB0
:101BA00001235A10CB17D21A13469B001344CA1AAA
:101BB000042A1BD100218020FEF760FC6548FEF757
:101BC00049FC0021C020FEF759FC6248FEF742FCA8
:101BD00000218020FEF752FC5F48FEF73BFC00210D
:101BE000C020FEF74BFC5D48FEF734FC7B6B0133F5
:101BF0007B6300F03BBD3B6C002B40F0A082796B17
:101C0000534B83FB01235A10CB17D21A13469B0068
:101C10001344CA1A002A08D1514B1868514B19684D
:101C2000514B1B681A46FEF7B1FE796B484B83FB9C
:101C300001235A10CB17D21A13469B001344CA1A19
:101C4000012A24D10023FB663B6B03F00103002B28
:101C500006D1464B1B681846FEF7DAFF0123BB6628
:101C60003A6B434B1340002B03DA013B63F0010353
:101C70000133012B06D13F4B1B681846FEF760FF6E
:101C80000223BB663B6B01333B6300F0EFBC796B17
:101C90002F4B83FB01235A10CB17D21A13469B00FC
:101CA0001344CA1A022A40F09880396B324B83FBE6
:101CB0000132CB17D21A13465B001344CA1A002A0A
:101CC0001AD10123BB6100233B617B61002180208D
:101CD000FEF7D4FB2948FEF7BDFB0021C020FEF72C
:101CE000CDFB1C48FEF7B6FBF868B9687A6807F1C7
:101CF0004803FFF769F96BE0396B1F4B83FB013237
:101D0000CB17D21A13465B001344CA1A012A39D1E1
:101D100001237B6100233B61BB6100218020FEF732
:101D2000ADFB1748FEF796FB0021C020FEF7A6FB8F
:101D30000848FEF78FFBF868B9687A6807F148032E
:101D4000FFF742F944E000BF0C040020FC630040B0
:101D500067666666AC360000343800004438000020
:101D6000400500202C0500203C0500202004002018
:101D70000100008028040020565555554C380000BD
:101D80005C380000396BBB4B83FB0132CB17D21A96
:101D900013465B001344CA1A022A19D101233B617E
:101DA00000237B61BB6100218020FEF767FBB24806
:101DB000FEF750FB0021C020FEF760FBAF48FEF7A6
:101DC00049FBF868B9687A6807F14803FFF7FCF83F
:101DD0003B6B01333B6300F049BC796BA84B83FB41
:101DE00001235A10CB17D21A13469B001344CA1A68
:101DF000032A28D100218020FEF740FBA148FEF7EE
:101E000029FB0021C020FEF739FB9C48FEF722FB8E
:101E10009D4B1A68FB68D31A9B4A13609B4B1A6848
:101E2000BB68D31A994A1360994B1A687B68D31A16
:101E3000974A136000237B60BB60FB604FF0000398
:101E40007B6600F013BC796B8D4B83FB01235A102A
:101E5000CB17D21A13469B001344CA1A042A40F027
:101E6000058400218020FEF709FB8448FEF7F2FA82
:101E70000021C020FEF702FB8048FEF7EBFABB6DA5
:101E800003F0030301337B657B6D022B00F00C81B3
:101E90007E4B1B685A007E4B1B681A447A4B1B68AA
:101EA0009B00134407EE903AB8EEE77AD7ED197A23
:101EB000B4EEE77AF1EE10FAC0F2BC8097ED177A33
:101EC000D7ED197A77EE677AC7ED197A704B1B68F0
:101ED000184697ED190AFEF70BFF38653B6DB3F115
:101EE000FF3F13D03B6D07EE903AF8EEE77A97ED9F
:101EF000197A77EE677AC7ED197A654B1A683B6DE8
:101F0000D31A634A1360386DFEF75CFF5F4B1B68A2
:101F1000184697ED190AFEF709FF38653B6DB3F1D6
:101F2000FF3F23D0786E00F0F5FF04460D46386D74
:101F300000F0DEFF4FF00002564B01F03FF8024682
:101F40000B462046294600F085FE03460C461846FF
:101F5000214601F0F5FA03467B664C4B1A683B6D4F
:101F6000D31A4A4A1360386DFEF74EFF464B1B6882
:101F7000184697ED190AFEF7FFFE38653B6DB3F181
:101F8000FF3F23D0786E00F0C5FF04460D46386D44
:101F900000F0AEFF4FF000023F4B01F00FF8024699
:101FA0000B462046294600F055FE03460C461846CF
:101FB000214601F0C5FA03467B66334B1A683B6D38
:101FC000D31A314A1360386DFEF740FF00237B605F
:101FD000BB60FB604FF000037B664FF00003FB65C6
:101FE0004FF000033B660023FB617B62BB623B62F8
:101FF000FB62FFF7A7F8FFF729F9FFF7B1F9FFF741
:1020000039FAFFF7C1FAFFF75DFCFFF747FBFFF76F
:10201000CFFBFFF735F800218020FEF72FFA174895
:10202000FEF718FA0021C020FEF728FA1348FEF741
:1020300011FA1BE300218020FEF720FA1748FEF773
:1020400009FA0021C020FEF719FA1548FEF702FA36
:10205000144A144B1B6843F0040313604FF4FA70E6
:10206000FEF7AAFA0F4A0F4B1B6823F00403136014
:10207000FCE200BF565555556C380000AC360000E8
:10208000676666667C380000400500202C0500204D
:102090003C0500200000E03F0000D03F90380000E9
:1020A000A4380000FC7300407B6D022B40F0DE8200
:1020B000FA6AB44B1B681344B24A1360BA6AB24B53
:1020C0001B681344B04A13603A6AB04B1B68134450
:1020D000AE4A13607A6AAE4B1B681344AC4A136075
:1020E000FA69AC4B1B681344AA4A13600023FB61D6
:1020F0007B62BB623B62FB624FF000037B66FB6866
:10210000A54A1268D31AA44A1360BB68A34A12688E
:10211000D31AA24A13607B68A14A1268D31AA04A54
:10212000136000237B60BB60FB604FF00003FB6526
:102130004FF000037B66786DFEF7B8FF96E2FB6B0D
:10214000002B40F09080796B964B83FB01235A1053
:10215000CB17D21A13469B001344CA1A012A3ED148
:102160000023BB66396B904B83FB0132CB17D21A2D
:1021700013465B001344CA1A002A06D10123FB66EA
:10218000804B1B681846FEF70FFD396B864B83FBAF
:102190000132CB17D21A13465B001344CA1A012A24
:1021A00006D10223FB66794B1B681846FEF794FCA8
:1021B000396B7D4B83FB0132CB17D21A13465B0080
:1021C0001344CA1A022A06D10323FB666E4B1B680E
:1021D0001846FEF751FD3B6B01333B6346E2796BDA
:1021E000704B83FB01235A10CB17D21A13469B0066
:1021F0001344CA1A032A40F03982FA6A614B1B68F9
:102200001344604A1360BA6A5F4B1B6813445E4A0A
:1022100013603A6A5D4B1B6813445C4A13607A6A28
:102220005B4B1B6813445A4A1360FA69594B1B688D
:102230001344584A13600023FB617B62BB623B621C
:10224000FB624FF000037B6600218020FEF716F949
:102250005648FEF7FFF80021C020FEF70FF954485A
:10226000FEF7F8F802E2BB6B002B40F0FF81796BC0
:102270004C4B83FB01235A10CB17D21A13469B00F9
:102280001344CA1A012A40F06481BB6E002B00F08F
:102290009880BB6E012B34D13D4B1B68002B2EDB8D
:1022A00097ED177AD7ED197A77EE677AB0EE007A64
:1022B00077EEC77AF5EEC07AF1EE10FA1CDBD7EDB7
:1022C000187AB0EE007A77EEC77AC7ED187A7B6A93
:1022D00001337B622E4B1B68013B2D4A1360D7ED07
:1022E000197AB0EE007A77EE877AC7ED197A7B6AB1
:1022F0001846FFF78FFB04E0FEF750FE01E0FFF702
:102300006BFBBB6E022B5CD1224B1B68002B56DD96
:1023100097ED177AD7ED197A77EE677A17EE900A6C
:1023200000F0F8FD4FF00002224B00F093FC034652
:102330000C46184621464FF000024FF0000301F012
:10234000C3F80346002B37D0D7ED187AB7EE0C7AD6
:1023500077EEC77AC7ED187AFB690133FB610D4B45
:102360001B68013B0B4A1360D7ED197AB7EE0C7A64
:1023700077EE877AC7ED197AFB691846FFF74AFBB3
:102380001FE000BF180400201C04002024040020CB
:102390002004002028040020400500202C050020F7
:1023A0003C0500206766666656555555B8380000EE
:1023B000CC3800000000FC3FFEF7F0FD01E0FFF725
:1023C0000BFBFB6E002B00F05181FB6E012B34D117
:1023D000A94B1B68002B2EDD97ED177AD7ED197AE4
:1023E00077EE677AB7EE007A77EEC77AF5EEC07AC5
:1023F000F1EE10FA1CDBD7ED187AB7EE007A77EE23
:10240000C77AC7ED187AFB6A0133FB629A4B1B68E7
:10241000013B994A1360D7ED197AB7EE007A77EE4F
:10242000877AC7ED197AFB6A1846FFF7F3FA04E0DA
:10243000FEF7B4FD01E0FFF7CFFAFB6E022B41D1AE
:102440008E4B1B68002B3BDD97ED177AD7ED197A81
:1024500077EE677A17EE900A00F05CFD4FF000020D
:10246000874B00F0F7FB03460C46184621464FF019
:1024700000024FF0000301F027F80346002B1CD0A8
:10248000D7ED187AB6EE007A77EEC77AC7ED187AEC
:102490003B6A01333B62794B1B68013B774A13600F
:1024A000D7ED197AB6EE007A77EE877AC7ED197A0A
:1024B0003B6A1846FFF7AEFA04E0FEF76FFD01E055
:1024C000FFF78AFAFB6E032B40F0D0806D4B1B6840
:1024D000002B3BDD97ED177AD7ED197A77EE677A07
:1024E00017EE900A00F016FD4FF00002664B00F068
:1024F000B1FB03460C46184621464FF000024FF050
:10250000000300F0E1FF0346002B1CD0D7ED187A42
:10251000B7EE087A77EEC77AC7ED187ABB6A01334F
:10252000BB62584B1B68013B564A1360D7ED197AC2
:10253000B7EE087A77EE877AC7ED197ABB6A184644
:10254000FFF768FA92E0FEF729FD8FE0FFF744FA03
:102550008CE0796B4D4B83FB01235A10CB17D21AB9
:1025600013469B001344CA1A022A40D1BB69012BAF
:102570000FD1FB680133FB60454B1B680133444AB4
:102580001360D7ED177AB5EE007A77EE877AC7ED4C
:10259000177A7B69012B0FD1BB680133BB603D4BC0
:1025A0001B6801333B4A1360D7ED177AB6EE007A09
:1025B00077EE877AC7ED177A3B69012B0FD17B68DD
:1025C00001337B60344B1B680133334A1360D7ED12
:1025D000177AB7EE007A77EE877AC7ED177AF86840
:1025E000B9687A6807F14803FEF7EEFC3EE0796BC4
:1025F000264B83FB01235A10CB17D21A13469B009C
:102600001344CA1A042A31D1BB6D03F0030301330A
:10261000FB64FB6C022B0FD1204A204B1B6843F05C
:10262000080313604FF4FA70FDF7C6FF1B4A1B4BFB
:102630001B6823F00803136000218020FDF71EFFB4
:102640001748FDF707FF0021C020FDF717FF1448CA
:10265000FDF700FF0A221349F86C00F0D9FF0021B2
:10266000C020FDF70BFF0F48FDF7F4FE9620FDF7A5
:10267000A3FFFFF738BA00BF18040020240400208D
:102680000000E03F1C0400200000F83F676666661B
:10269000400500202C0500203C050020FC73004074
:1026A000AC3600003005002080B582B000AF134B7F
:1026B0007B60134B3B6007E03B681A1D3A607A6809
:1026C000111D796012681A603B680E4A9342F3D379
:1026D0000E480F494FF000028842B8BF40F8042B63
:1026E000FADB094A084B1B6843F470031360FFF7D9
:1026F000B9F900BF0837BD4680BD00BF583A000099
:10270000000000201404002088ED00E014040020E4
:102710004805002080B400AFFEE700BF80B400AFE2
:10272000FEE700BF80B400AFFEE700BFD0F8003482
:1027300012F0010F10B500F5806414BF0B438B43FA
:10274000236012F0020FD0F8202400F5846314BF38
:10275000114322EA0101196010BDF0B5C2F3411620
:10276000002441FA04F5ED0711D5D0F8C47F6500C7
:102770004FF0030C0CFA05FC27EA0C07C0F8C47FE5
:10278000D0F8C47F06FA05F53D43C0F8C45F0134B4
:10279000082CE6D1D0F8004512F0010F00F5A06535
:1027A00014BF0C438C432C60D0F8044512F0020F88
:1027B00000F2045514BF0C438C432C60D0F808453C
:1027C00012F0040F00F5A16514BF0C438C432C607C
:1027D000D0F8184512F0080F00F5A36514BF0C439C
:1027E0008C432C6012F0100FD0F83C2500F23C54C2
:1027F00014BF0A438A432260D0F80C2513F0010F5E
:1028000000F20C5414BF0A438A432260D0F810250A
:1028100013F0020F00F5A26414BF0A438A4322603A
:10282000D0F8142513F0040F00F2145414BF0A4317
:102830008A432260D0F81C2513F0080F00F21C54C4
:1028400014BF0A438A432260D0F8442513F4007F62
:1028500000F2445414BF0A438A432260D0F8402552
:1028600013F4407F00F5A86414BF0A438A43226032
:1028700000F5A5621BB9D0F82805014303E0D0F8A4
:10288000283523EA01011160F0BD70B5022205462A
:102890000C46FFF74BFF2846214601220823BDE8DE
:1028A0007040FFF75ABF0000104BC0F3074210B54D
:1028B00001211C680E4B01FA02F121424FEA42024B
:1028C00018BF01320F2153F82230C0F30722D3F88A
:1028D0002C4501FA02F100F00F0024EA010100FA90
:1028E00002F21143C3F82C1510BD00BF6CE00F407D
:1028F000E03800000A4B0B4A70B51C6894420AD0BD
:102900001E6800239D59074C1D510433B3F51B7FEE
:10291000F8D1034B1A60034A42F8201070BD00BF83
:1029200008ED00E000000020042804D113490A68E3
:1029300042F4803205E0052805D11049086840F4CA
:1029400000320A607047062804D10C490B6843F432
:102950008022F6E70F2804D10949086840F00202F6
:10296000EFE70AD910384209064B00F01F0053F870
:102970002210012202FA00F30B60704724ED00E000
:1029800010E000E084390000042804D113490A68EB
:1029900022F4803205E0052805D11049086820F4AA
:1029A00000320A607047062804D10C490B6823F4F2
:1029B0008022F6E70F2804D10949086820F00202B6
:1029C000EFE70AD910384209064B00F01F0053F810
:1029D0002210012202FA00F30B60704724ED00E0A0
:1029E00010E000E070390000C3B2C0F30720990086
:1029F00000F57E2341F0844203F5C06121F47000AC
:102A000042EA401201231360704701387FF4FDAFA2
:102A1000704700003E4AF0B53E4D1468296824F422
:102A2000800343F4006341F4006613602E60E50701
:102A300015D5C40713D460F001042340364C4FF47D
:102A40008075256013604FF40022344C246814F420
:102A5000807F02D1013AF8D158E0002A56D023F401
:102A6000FE6621F000412E4B21F0700242F4006519
:102A700000F4FE6703403E4345EA030400F0080704
:102A800044EAC7022349224C26F40053266000F48E
:102A900000550A60204E22F400522B4340272A435F
:102AA00037604EBF0A6023600A6023F0F86148BFB8
:102AB000236021F001031B4901400B4322F0FC522B
:102AC00000F0FC510A43410007D5174922F4800267
:102AD000014043F480030A4301E022F080420105F3
:102AE0000BD44FF4004111480068C00701D40139EC
:102AF000F9D123F4006322F400620548054903601C
:102B000010200A60BDE8F040FFF77FBFF0BD00BFB6
:102B100060E00F4070E00F4058E00F4050E00F4081
:102B2000300000800100C0070000404068E10F4015
:102B30000B4B0C491A680C4B10B513400B4C0C4A4C
:102B4000A34218BF0A460023D158814202EB030476
:102B500001D1606810BD0833402BF5D1002010BDB5
:102B600000E00F40983900000000FF7000000A10DC
:102B7000D8390000C36A43F01001C162026B42F40D
:102B8000407343F001010163704783691B07FCD464
:102B9000C16A21F01002C262036B23F4407121F07C
:102BA000010202637047F8B504460E4615461F46FB
:102BB000FFF7EBFFB6EB051F236B04D243F02001B8
:102BC00021636D0802E023F020002063F600B6FBCD
:102BD000F5F2551CEB090020C5F345056362A562BB
:102BE000E762A0612046BDE8F840FFF7C3BFC36AB3
:102BF00023F01001C16270478369DA0654BF006890
:102C00004FF0FF30704783699B0602D401600120BA
:102C100070470020704738B50D46FFF789FF2946F9
:102C20000446FFF767FE2046BDE83840FFF77CBE4C
:102C3000836B19438163704709B1006C7047C06BA7
:102C4000704741647047C0F8C81F704781F0004169
:102C500002E000BF83F0004330B54FEA41044FEA81
:102C6000430594EA050F08BF90EA020F1FBF54EA1C
:102C7000000C55EA020C7FEA645C7FEA655C00F0B8
:102C8000E2804FEA5454D4EB5555B8BF6D420CDD89
:102C90002C4480EA020281EA030382EA000083EA0C
:102CA000010180EA020281EA0303362D88BF30BDAC
:102CB00011F0004F4FEA01314FF4801C4CEA113102
:102CC00002D0404261EB410113F0004F4FEA033361
:102CD0004CEA133302D0524263EB430394EA050FEC
:102CE00000F0A780A4F10104D5F1200E0DDB02FA5B
:102CF0000EFC22FA05F2801841F1000103FA0EF2EF
:102D0000801843FA05F359410EE0A5F120050EF1B4
:102D1000200E012A03FA0EFC28BF4CF0020C43FAE5
:102D200005F3C01851EBE37101F0004507D54FF0F2
:102D3000000EDCF1000C7EEB00006EEB0101B1F542
:102D4000801F1BD3B1F5001F0CD349085FEA300088
:102D50004FEA3C0C04F101044FEA445212F5800F93
:102D600080F09A80BCF1004F08BF5FEA500C50F130
:102D7000000041EB045141EA050130BD5FEA4C0C13
:102D8000404141EB010111F4801FA4F10104E9D19C
:102D900091F0000F04BF01460020B1FA81F308BF93
:102DA0002033A3F10B03B3F120020CDA0C3208DD5F
:102DB00002F1140CC2F10C0201FA0CF021FA02F13A
:102DC0000CE002F11402D8BFC2F1200C01FA02F1AA
:102DD00020FA0CFCDCBF41EA0C019040E41AA2BFCF
:102DE00001EB0451294330BD6FEA04041F3C1CDA97
:102DF0000C340EDC04F11404C4F1200220FA04F0B7
:102E000001FA02F340EA030021FA04F345EA030160
:102E100030BDC4F10C04C4F1200220FA02F001FA22
:102E200004F340EA0300294630BD21FA04F02946A4
:102E300030BD94F0000F83F4801306BF81F480113D
:102E40000134013D4EE77FEA645C18BF7FEA655CB0
:102E500029D094EA050F08BF90EA020F05D054EA82
:102E6000000C04BF1946104630BD91EA030F1EBF87
:102E70000021002030BD5FEA545C05D1400049418B
:102E800028BF41F0004130BD14F580043CBF01F57E
:102E9000801130BD01F0004545F0FE4141F4700164
:102EA0004FF0000030BD7FEA645C1ABF194610463F
:102EB0007FEA655C1CBF0B46024650EA013406BF40
:102EC00052EA033591EA030F41F4002130BD00BFFF
:102ED00090F0000F04BF0021704730B54FF48064BC
:102EE00004F132044FF000054FF0000150E700BF3D
:102EF00090F0000F04BF0021704730B54FF480649C
:102F000004F1320410F0004548BF40424FF0000188
:102F10003EE700BF42004FEAE2014FEA31014FEACB
:102F200002701FBF12F07F4393F07F4F81F060511A
:102F3000704792F0000F14BF93F07F4F704730B589
:102F40004FF4607401F0004521F0004120E700BF1C
:102F500050EA010208BF704730B54FF000050AE0A3
:102F600050EA010208BF704730B511F0004502D5A4
:102F7000404261EB41014FF4806404F132045FEAA6
:102F8000915C3FF4DCAE4FF003025FEADC0C18BF4B
:102F900003325FEADC0C18BF033202EBDC02C2F141
:102FA000200300FA03FC20FA02F001FA03FE40EAD3
:102FB0000E0021FA02F11444C1E600BF70B54FF0D3
:102FC000FF0C4CF4E06C1CEA11541DBF1CEA1355B5
:102FD00094EA0C0F95EA0C0F00F0DEF82C4481EA1D
:102FE000030621EA4C5123EA4C5350EA013518BF3D
:102FF00052EA033541F4801143F4801338D0A0FB2A
:1030000002CE4FF00005E1FB02E506F00042E0FBD6
:1030100003E54FF00006E1FB03569CF0000F18BFDC
:103020004EF0010EA4F1FF04B6F5007F64F5407484
:1030300004D25FEA4E0E6D4146EB060642EAC62117
:1030400041EA55514FEAC52040EA5E504FEACE2E84
:10305000B4F1FD0C88BFBCF5E06F1ED8BEF1004F87
:1030600008BF5FEA500E50F1000041EB045170BD03
:1030700006F0004646EA010140EA020081EA030147
:10308000B4EB5C04C2BFD4EB0C0541EA045170BD43
:1030900041F480114FF0000E013C00F3AB8014F1BD
:1030A000360FDEBF002001F0004170BDC4F1000406
:1030B000203C35DA0C341BDC04F11404C4F1200587
:1030C00000FA05F320FA04F001FA05F240EA0200E2
:1030D00001F0004221F0004110EBD37021FA04F618
:1030E00042EB06015EEA430E08BF20EAD37070BDD2
:1030F000C4F10C04C4F1200500FA04F320FA05F031
:1031000001FA04F240EA020001F0004110EBD37032
:1031100041F100015EEA430E08BF20EAD37070BDA2
:10312000C4F1200500FA05F24EEA020E20FA04F37B
:1031300001FA05F243EA020321FA04F001F000412A
:1031400021FA04F220EA020000EBD3705EEA430E9B
:1031500008BF20EAD37070BD94F0000F0FD101F0CA
:103160000046400041EB010111F4801F08BF013C03
:10317000F7D041EA060195F0000F18BF704703F041
:103180000046520043EB030313F4801F08BF013DC8
:10319000F7D043EA0603704794EA0C0F0CEA135584
:1031A00018BF95EA0C0F0CD050EA410618BF52EA3E
:1031B0004306D1D181EA030101F000414FF0000044
:1031C00070BD50EA410606BF1046194652EA430652
:1031D00019D094EA0C0F02D150EA013613D195EAC6
:1031E0000C0F05D152EA03361CBF104619460AD10E
:1031F00081EA030101F0004141F0FE4141F4700118
:103200004FF0000070BD41F0FE4141F4780170BD07
:1032100070B54FF0FF0C4CF4E06C1CEA11541DBF6C
:103220001CEA135594EA0C0F95EA0C0F00F0A7F86E
:10323000A4EB050481EA030E52EA03354FEA01319B
:1032400000F088804FEA03334FF0805545EA1313AE
:1032500043EA12634FEA022245EA111545EA106576
:103260004FEA00260EF000419D4208BF964244F10D
:10327000FD0404F5407402D25B084FEA3202B61A2C
:1032800065EB03055B084FEA32024FF480104FF400
:10329000002CB6EB020E75EB030E22BFB61A754674
:1032A00040EA0C005B084FEA3202B6EB020E75EB07
:1032B000030E22BFB61A754640EA5C005B084FEA6F
:1032C0003202B6EB020E75EB030E22BFB61A75463C
:1032D00040EA9C005B084FEA3202B6EB020E75EB47
:1032E000030E22BFB61A754640EADC0055EA060E08
:1032F00018D04FEA051545EA16754FEA06164FEA4B
:10330000C30343EA52734FEAC2025FEA1C1CC0D1F6
:1033100011F4801F0BD141EA00014FF000004FF083
:10332000004CB6E711F4801F04BF01430020B4F144
:10333000FD0C88BFBCF5E06F3FF6AFAEB5EB030CFC
:1033400004BFB6EB020C5FEA500C50F1000041EBF9
:10335000045170BD0EF0004E4EEA113114EB5C04C6
:10336000C2BFD4EB0C0541EA045170BD41F4801199
:103370004FF0000E013C90E645EA060E8DE60CEAA1
:10338000135594EA0C0F08BF95EA0C0F3FF43BAFBE
:1033900094EA0C0F0AD150EA01347FF434AF95EA75
:1033A0000C0F7FF425AF104619462CE795EA0C0F59
:1033B00006D152EA03353FF4FDAE1046194622E726
:1033C00050EA410618BF52EA43067FF4C5AE50EA00
:1033D00041047FF40DAF52EA43057FF4EBAE12E7F0
:1033E0004FF0FF3C06E000BF4FF0010C02E000BFD1
:1033F0004FF0010C4DF804CD4FEA410C7FEA6C5CB4
:103400004FEA430C18BF7FEA6C5C1BD001B050EA56
:10341000410C0CBF52EA430C91EA030F02BF90EA41
:10342000020F0020704710F1000F91EA030F58BF00
:10343000994208BF90422CBFD8176FEAE37040F062
:10344000010070474FEA410C7FEA6C5C02D150EA00
:10345000013C07D14FEA430C7FEA6C5CD6D152EABB
:10346000033CD3D05DF8040B704700BF8446104680
:1034700062468C461946634600E000BF01B5FFF77F
:10348000B7FF002848BF10F1000F01BD4DF808ED4F
:10349000FFF7F4FF0CBF012000205DF808FB00BF20
:1034A0004DF808EDFFF7EAFF34BF012000205DF87A
:1034B00008FB00BF4DF808EDFFF7E0FF94BF0120C7
:1034C00000205DF808FB00BF4DF808EDFFF7CEFFC8
:1034D00094BF012000205DF808FB00BF4DF808ED07
:1034E000FFF7C4FF34BF012000205DF808FB00BFD8
:1034F0004FEA410212F5001215D211D56FF478731C
:10350000B3EB625212D94FEAC12343F0004343EABE
:10351000505311F0004F23FA02F018BF4042704799
:103520004FF00000704750EA013005D111F0004023
:1035300008BF6FF0004070474FF00000704700BFB9
:103540004FEA4102B2F1E04324BFB3F5001CDCF1C5
:10355000FE5C0DD901F0004C4FEAC0024CEA5070FD
:10356000B2F1004F40EB830008BF20F0010070472C
:1035700011F0804F21D113F13872BCBF01F000402F
:10358000704741F480114FEA5252C2F11802C2F161
:10359000200C10FA0CF320FA02F018BF40F00100E2
:1035A0004FEAC1234FEAD32303FA0CFC40EA0C0094
:1035B00023FA02F34FEA4303CCE77FEA625307D1D1
:1035C00050EA01331EBF4FF0FE4040F44000704708
:1035D00001F0004040F0FE4040F40000704700BFA2
:1035E000931E222B10D80A2A10B506D000230C46B1
:1035F000194400F00FF8204610BD0028F6DA2D23FC
:103600000B7040420123F2E700200870704700BFB2
:10361000FFF7E6BFF0B5DFF878E0164604460F4640
:10362000BEE80F008BB06D460FC5BEE80F000FC59A
:103630009EE80300B31E45F8040B222B297022D804
:103640007D1E2846002200E01A46B4FBF6F10AABC4
:1036500006FB114423440C4613F8283C00F8013FB4
:10366000531C0029F0D1F954BB184AB1197815F848
:10367000010F29700134111B8C4203F80109F5DB9D
:1036800038460BB0F0BD002038700BB0F0BD00BF65
:10369000183A0000FFF7BEBF5265736574204D6F86
:1036A0006475202020202020000000002020202001
:1036B000202020202020202020202020000000008A
:1036C000242042544E31202D20592042544E322085
:1036D000000000005969796563656B204D6F647562
:1036E00020202020000000003235206B72733A0049
:1036F0003530206B72733A0031544C3A00000000B0
:1037000050617261204D6F647520202020202020A0
:10371000000000005969796563656B204F6E61791F
:1037200069202020000000006963696E20427574E2
:103730006F6E203220626173000000005375203AE2
:1037400020353020202020202020202000000000D4
:1037500053746F6B203A200043696B6F6C61746126
:10376000203A20312E373500202020202020202014
:10377000202020202020200053746F6B3A2000006E
:10378000436179203A203120544C202020202020F1
:10379000000000004269736B757669203A20322080
:1037A000544C2020000000004B61687665203A20D0
:1037B000312E3520544C20200000000020202020F5
:1037C000202020200000000035304B72733A0000AA
:1037D00032354B72733A0000596574657273697AB9
:1037E0002042616B6979652100000000544C204142
:1037F0007474696E697A0000504152412053494BFC
:10380000495354490000000052414E444F4D203A64
:1038100020000000594554455253495A2053544FF3
:103820004B0000006164657420616C64696E697AA4
:10383000000000004B4153412042494C4749534945
:10384000000000004255544F4E3200003235204BEC
:103850007572757320202020000000003530204B49
:103860007572757320202020000000003120544C18
:103870002020202020202020200000005041524104
:103880002049414445204544494C4449000000003A
:103890004B41534144412059455445524C49202005
:1038A000000000005041524120594F4B2120202060
:1038B00020202020000000005949594543454B2055
:1038C0004941444520202020000000004544494C47
:1038D000444920202020202020202020000000001B
:1038E000004000400080054000500040009005402E
:1038F0000060004000A005400070004000B005409E
:103900000040024000C005400050024000D0054089
:103910000060024000E005400070024000F00540F9
:1039200000D0034000000640001006400010064092
:1039300000200640002006400030064000300640CF
:10394000004006400040064000500640005006403F
:1039500000600640006006400070064000700640AF
:10396000008006400080064000900640009006401F
:1039700080E100E084E100E088E100E08CE100E02B
:1039800090E100E000E100E004E100E008E100E097
:103990000CE100E010E100E000C000401500000074
:1039A00000D000401600000000E0004031000000A0
:1039B00000F000404B000000000001404C000000FF
:1039C000001001404D000000002001404E000000AA
:1039D000003001404F00000000C000401500000012
:1039E00000D000401600000000E000403100000060
:1039F00000F00040480000000000014049000000C5
:103A0000001001404A000000002001404B0000006F
:103A1000003001404C00000030313233343536374D
:103A200038396162636465666768696A6B6C6D6E7C
:103A30006F707172737475767778797A0000000010
:103A4000F8B500BFF8BC08BC9E467047F8B500BF8B
:083A5000F8BC08BC9E4670475B
:103A5800000000000000000000000000000000005E
:103A6800000000000000000000000000000000004E
:103A7800000000000000000000000000000000003E
:103A8800000000000000000000000000000000002E
:103E58003138303230313030360000000004002074
:043E680064000000F2
:00000001FF
